:020000040800F2
:1000000000280020D9180008691800086F18000897
:10001000751800087B18000881180008000000000F
:100020000000000000000000000000008718000829
:1000300093180008000000009F180008AB18000883
:1000400021190008211900082119000821190008A8
:100050002119000821190008211900082119000898
:100060002119000821190008211900082119000888
:100070002119000821190008211900082119000878
:100080002119000821190008211900082119000868
:100090002119000821190008211900082119000858
:1000A0002119000821190008211900082119000848
:1000B000B9180008211900080000000021190008E3
:1000C00021190008000000000000000021190008AC
:1000D000000000002119000821190008000000009C
:1000E000211900082119000821190008000000004A
:1000F0000000000000000000000000000000000000
:0C01000000000000000000005FF808F1A3
:10010C0010B5054C237833B9044B13B10448AFF345
:10011C0000800123237010BD380000200000000077
:10012C00682F000808B5034B1BB103490348AFF314
:10013C00008008BD000000003C000020682F000873
:10014C0080B500AF01224FF480510B4801F0E5FE61
:10015C0001224FF40051084801F0DFFE01224FF458
:10016C008041054801F0D9FE01224FF400410248BC
:10017C0001F0D3FE00BF80BD000C014080B483B001
:10018C0000AF786039607B68184A82FB03129210CA
:10019C00DB17D31A164A13607968144B83FB0123BF
:1001AC009A10CB17D21A13469B0013445B00CA1A41
:1001BC000F4B5A603B680D4A82FB03129210DB17FF
:1001CC00D31A0B4A93603968084B83FB01239A10AE
:1001DC00CB17D21A13469B0013445B00CA1A044B6C
:1001EC00DA6000BF0C37BD4680BC70476766666638
:1001FC00B800002080B582B000AF78607B68092B16
:10020C0000F2808101A252F823F000BF41020008E5
:10021C0089020008D10200081903000861030008D4
:10022C00A9030008F1030008390400088104000840
:10023C00C904000800220121B44801F06EFE00221E
:10024C000221B24801F069FE00220421AF4801F0FE
:10025C0064FE00220821AD4801F05FFE002210214F
:10026C00AA4801F05AFE00222021A84801F055FEB0
:10027C0001224021A54801F050FE43E10122012159
:10028C00A24801F04AFE00220221A04801F045FEDE
:10029C00002204219D4801F040FE012208219B48C8
:1002AC0001F03BFE01221021984801F036FE01229C
:1002BC002021964801F031FE01224021934801F0A3
:1002CC002CFE1FE100220121904801F026FE0022A5
:1002DC0002218E4801F021FE012204218B4801F0FD
:1002EC001CFE00220821894801F017FE0022102173
:1002FC00864801F012FE01222021844801F00DFEF7
:10030C0000224021814801F008FEFBE0002201217F
:10031C007E4801F002FE002202217C4801F0FDFD26
:10032C0000220421794801F0F8FD002208217748C9
:10033C0001F0F3FD01221021744801F0EEFD0122C1
:10034C002021724801F0E9FD002240216F4801F0A4
:10035C00E4FDD7E0012201216C4801F0DEFD002212
:10036C0002216A4801F0D9FD00220421674801F0FE
:10037C00D4FD01220821654801F0CFFD0122102196
:10038C00624801F0CAFD00222021604801F0C5FD41
:10039C00002240215D4801F0C0FDB3E000220121A4
:1003AC005A4801F0BAFD01220221584801F0B5FD6E
:1003BC0000220421554801F0B0FD002208215348C9
:1003CC0001F0ABFD01221021504801F0A6FD0022E6
:1003DC0020214E4801F0A1FD002240214B4801F0A4
:1003EC009CFD8FE000220121484801F096FD01227E
:1003FC000221464801F091FD00220421434801F0FE
:10040C008CFD00220821414801F087FD00221021BB
:10041C003E4801F082FD002220213C4801F07DFD88
:10042C0000224021394801F078FD6BE000220121C7
:10043C00364801F072FD00220221344801F06DFDB6
:10044C0000220421314801F068FD012208212F48C7
:10045C0001F063FD012210212C4801F05EFD012208
:10046C0020212A4801F059FD01224021274801F0A2
:10047C0054FD47E000220121244801F04EFD0022EA
:10048C000221224801F049FD002204211F4801F0FD
:10049C0044FD002208211D4801F03FFD00221021DF
:1004AC001A4801F03AFD00222021184801F035FDD0
:1004BC0000224021154801F030FD23E000220121EB
:1004CC00124801F02AFD00220221104801F025FDFE
:1004DC00002204210D4801F020FD002208210B48C8
:1004EC0001F01BFD01221021084801F016FD00222D
:1004FC002021064801F011FD00224021034801F0A3
:10050C000CFD00BF00BF0837BD4680BD000C01408C
:10051C0080B582B000AF78607B68092B00F2BC819B
:10052C0001A252F823F000BF5D050008B1050008D8
:10053C000506000859060008AD060008010700086A
:10054C0055070008A9070008FD0700085108000816
:10055C0000228021D24801F0E0FC00224FF480718F
:10056C00CF4801F0DAFC00224FF40071CC4801F0C6
:10057C00D4FC00224FF48061C94801F0CEFC00226B
:10058C004FF40061C64801F0C8FC00224FF48051C2
:10059C00C34801F0C2FC01224FF40051C04801F0E5
:1005AC00BCFC79E101228021BD4801F0B6FC00229F
:1005BC004FF48071BA4801F0B0FC00224FF4007186
:1005CC00B74801F0AAFC01224FF48061B44801F055
:1005DC00A4FC01224FF40061B14801F09EFC012201
:1005EC004FF48051AE4801F098FC01224FF40051B9
:1005FC00AB4801F092FC4FE100228021A84801F0A9
:10060C008CFC00224FF48071A54801F086FC01227D
:10061C004FF40071A24801F080FC00224FF480617D
:10062C009F4801F07AFC00224FF400619C4801F0D5
:10063C0074FC01224FF48051994801F06EFC0022A9
:10064C004FF40051964801F068FC25E1002280210E
:10065C00934801F062FC00224FF48071904801F045
:10066C005CFC00224FF400718D4801F056FC002216
:10067C004FF480618A4801F050FC01224FF4006174
:10068C00874801F04AFC01224FF48051844801F064
:10069C0044FC00224FF40051814801F03EFCFBE089
:1006AC00012280217E4801F038FC00224FF4807139
:1006BC007B4801F032FC00224FF40071784801F0C5
:1006CC002CFC01224FF48061754801F026FC0122BC
:1006DC004FF40061724801F020FC00224FF480516D
:1006EC006F4801F01AFC00224FF400516C4801F0E5
:1006FC0014FCD1E000228021694801F00EFC01229B
:10070C004FF48071664801F008FC00224FF4007130
:10071C00634801F002FC00224FF48061604801F054
:10072C00FCFB01224FF400615D4801F0F6FB002256
:10073C004FF480515A4801F0F0FB00224FF4005165
:10074C00574801F0EAFBA7E000228021544801F051
:10075C00E4FB01224FF48071514801F0DEFB0022D2
:10076C004FF400714E4801F0D8FB00224FF4806129
:10077C004B4801F0D2FB00224FF40061484801F0D5
:10078C00CCFB00224FF48051454801F0C6FB0022FF
:10079C004FF40051424801F0C0FB7DE00022802163
:1007AC003F4801F0BAFB00224FF480713C4801F045
:1007BC00B4FB00224FF40071394801F0AEFB01226A
:1007CC004FF48061364801F0A8FB01224FF4006120
:1007DC00334801F0A2FB01224FF48051304801F064
:1007EC009CFB01224FF400512D4801F096FB53E085
:1007FC00002280212A4801F090FB00224FF48071E6
:10080C00274801F08AFB00224FF40071244801F0C4
:10081C0084FB00224FF48061214801F07EFB002212
:10082C004FF400611E4801F078FB00224FF4805118
:10083C001B4801F072FB00224FF40051184801F0E4
:10084C006CFB29E000228021154801F066FB002298
:10085C004FF48071124801F060FB00224FF40071DC
:10086C000F4801F05AFB00224FF480610C4801F054
:10087C0054FB01224FF40061094801F04EFB0022A9
:10088C004FF48051064801F048FB00224FF4005110
:10089C00034801F042FB00BF00BF0837BD4680BDD6
:1008AC00000C014080B582B000AF78607B68002BF3
:1008BC0003D07B68012B19D031E000224FF480511A
:1008CC00204801F02AFB01224FF400511D4801F091
:1008DC0024FB00224FF480411A4801F01EFB012238
:1008EC004FF40041174801F018FB18E001224FF4B7
:1008FC008051144801F011FB00224FF400511148B3
:10090C0001F00BFB01224FF480410E4801F005FB76
:10091C0000224FF400410B4801F0FFFA00BF0A4AD5
:10092C007B6852F823301846FFF764FC7B6802336F
:10093C00054A52F823301846FFF7EAFD00BF083786
:10094C00BD4680BD00080140B800002080B500AF56
:10095C00012202210E4801F0E0FA012204210C4888
:10096C0001F0DBFA01220821094801F0D6FA012234
:10097C001021074801F0D1FA01222021044801F08E
:10098C00CCFA01224021024801F0C7FA00BF80BD19
:10099C000008014080B500AF01220221074801F098
:1009AC00BCFA00220421054801F0B7FA0122082103
:1009BC00024801F0B2FA00BF80BD00BF0008014040
:1009CC0080B500AF01220221074801F0A6FA0122EE
:1009DC000421054801F0A1FA00220821024801F087
:1009EC009CFA00BF80BD00BF0008014080B500AF7D
:1009FC0000220221074801F090FA01220421054847
:100A0C0001F08BFA01220821024801F086FA00BF9E
:100A1C0080BD00BF0008014080B500AF012210214D
:100A2C00074801F07AFA00222021054801F075FAF6
:100A3C0001224021024801F070FA00BF80BD00BFC6
:100A4C000008014080B500AF01221021074801F0D9
:100A5C0064FA01222021054801F05FFA00224021AE
:100A6C00024801F05AFA00BF80BD00BF00080140E7
:100A7C0080B500AF00221021074801F04EFA012288
:100A8C002021054801F049FA01224021024801F0D9
:100A9C0044FA00BF80BD00BF0008014080B500AF24
:100AAC00012202210D4801F038FA04210B4801F013
:100ABC004CFA01220821094801F02FFA01221021D9
:100ACC00064801F02AFA2021044801F03EFA0122DE
:100ADC004021024801F021FA00BF80BD000801400E
:100AEC0080B500AF012202210D4801F016FA012257
:100AFC0004210B4801F011FA0821094801F025FAEC
:100B0C0001221021064801F008FA01222021044894
:100B1C0001F003FA4021024801F017FA00BF80BD32
:100B2C000008014080B500AF02210E4801F00DFA1B
:100B3C00012204210B4801F0F0F901220821094897
:100B4C0001F0EBF91021074801F0FFF901222021F7
:100B5C00044801F0E2F901224021024801F0DDF9DC
:100B6C0000BF80BD0008014080B500AF964B1B78DC
:100B7C00082B00F2BE8301A252F823F0AD0B000843
:100B8C00F30B0008DB0C0008050E0008ED0E000846
:100B9C0015100008E1100008AD11000853120008F0
:100BAC00FFF7D4FEFFF7CCFA874B01221A70874B64
:100BBC001B68874A1360874B1B68874A1360854BF9
:100BCC001B68642202FB03F3184600F073FD804B94
:100BDC001B68814A126811461846FFF7CFFA32207B
:100BEC0000F07CFD85E3FFF7D5FEFFF741FF7B4B63
:100BFC001B681846FFF756FE794B1B68002B0AD072
:100C0C00784B1B68642202FB03F3184600F052FD7C
:100C1C006D4B02221A70744B1B68002B2ED06F4B3D
:100C2C001B6801336D4A13606C4B1B68002B03F07F
:100C3C000103B8BF5B42694A1360684B1B68002B09
:100C4C0019D1634B1B68013B614A1360624B1B68F3
:100C5C00013B614A1360604B1B68002B03DC614B4A
:100C6C001B685D4A13605A4B1B685B4A126811463D
:100C7C001846FFF783FA322000F030FD002000F018
:100C8C003BFB0346002B00F027834F4B05221A70C9
:100C9C00504B1B68554A13604C4B1B68544A1360ED
:100CAC00504B1B68534A1360494B02221A60474B46
:100CBC001B68494A1360464B1B68474A1268114629
:100CCC001846FFF75BFA192000F01CFD04E3FFF750
:100CDC0061FEFFF7B7FE414B1B681846FFF7E2FDBC
:100CEC003F4B1B68002B0AD03A4B1B68642202FB5B
:100CFC0003F3184600F0DEFC334B03221A703A4B18
:100D0C001B68002B36D0354B1B680133334A1360FC
:100D1C00324B1B68002B03F00103B8BF5B422F4A18
:100D2C0013602E4B1B68002B21D1294B1B68013BF8
:100D3C00274A1360284B1B68013B274A1360244B3E
:100D4C001B68002B03DC234B1B68214A1360224BCE
:100D5C001B68002B03DC1D4B1B681F4A13601C4BCC
:100D6C001B681D4A126811461846FFF707FA322015
:100D7C0000F0B4FC002000F0BFFA0346002B00F09A
:100D8C00AD82114B05221A70124B1B68174A136067
:100D9C000E4B1B68164A1360124B1B68154A1360E6
:100DAC000B4B02221A60094B1B680B4A1360084B51
:100DBC001B68094A126811461846FFF7DFF919201B
:100DCC0000F0A0FC8AE200BF6000002004000020BC
:100DDC005400002000000020580000205C0000207F
:100DEC00A400002008000020AC0000200C00002013
:100DFC001000002014000020FFF7F8FDFFF70CFE98
:100E0C00754B1B681846FFF74DFD744B1B68002B88
:100E1C000AD0734B1B68642202FB03F3184600F0E4
:100E2C0049FC704B04221A706F4B1B68002B2ED0A0
:100E3C00694B1B680133684A1360674B1B68002BB6
:100E4C0003F00103B8BF5B42634A1360624B1B683B
:100E5C00002B19D1654B1B68013B644A1360644B32
:100E6C001B68013B624A1360604B1B68002B03DC60
:100E7C005B4B1B685D4A13605C4B1B685C4A1268D9
:100E8C0011461846FFF77AF9322000F027FC0020B3
:100E9C0000F032FA0346002B00F02282514B05225F
:100EAC001A70544B1B68544A1360544B1B68544AB9
:100EBC0013604B4B1B68534A13604C4B02221A6055
:100ECC004E4B1B684A4A1360484B1B68484A1268D1
:100EDC0011461846FFF752F9192000F013FCFFE1F8
:100EEC00FFF76EFDFFF798FD3B4B1B681846FFF7AD
:100EFC00D9FC3A4B1B68002B0AD03E4B1B68642272
:100F0C0002FB03F3184600F0D5FB364B01221A7096
:100F1C00354B1B68002B36D02F4B1B6801332E4AE8
:100F2C0013602D4B1B68002B03F00103B8BF5B4211
:100F3C00294A1360284B1B68002B21D12B4B1B68B3
:100F4C00013B2A4A13602A4B1B68013B284A136059
:100F5C00264B1B68002B03DC284B1B68234A1360B1
:100F6C00234B1B68002B03DC224B1B68204A1360AD
:100F7C001E4B1B681E4A126811461846FFF7FEF8F6
:100F8C00322000F0ABFB002000F0B6F90346002B3A
:100F9C0000F0A881134B05221A70164B1B68164AD9
:100FAC001360164B1B68164A13600D4B1B68154AD1
:100FBC0013600E4B02221A60104B1B680C4A136014
:100FCC000A4B1B680A4A126811461846FFF7D6F8F6
:100FDC00192000F097FB85E15C000020A4000020A4
:100FEC000800002060000020AC000020540000200D
:100FFC0058000020000000200C00002004000020FD
:10100C001000002014000020A74B1B68002B04D0FC
:10101C00FFF744FD192000F075FBA44B1B68002B57
:10102C0013D0A34B1B685A1CA1490A601846FFF742
:10103C0039FC9F4B1B68002B03F00103B8BF5B42CC
:10104C009B4A1360322000F049FB002000F054F959
:10105C000346002B14D0974B06221A70964B032292
:10106C001A60964B1B68964A1360934B1B68944A04
:10107C00126811461846FFF781F8192000F042FB60
:10108C00012000F039F90346002B17D08D4B1B685B
:10109C0001338C4A13608B4B1B68632B02DD894B2D
:1010AC0001221A60874B1B68854A1360824B1B68B0
:1010BC00834A126811461846FFF760F8022000F0C8
:1010CC001BF90346002B00F00F817E4B1B687E4AF8
:1010DC00136009E1744B1B68002B04D0FFF700FD73
:1010EC00192000F00FFB714B1B68002B13D0704BB9
:1010FC001B685A1C6E490A601846FFF7D3FB6C4BF1
:10110C001B68002B03F00103B8BF5B42684A1360F5
:10111C00322000F0E3FA002000F0EEF80346002B3A
:10112C0014D0644B07221A70634B04221A60674B6D
:10113C001B68634A1360604B1B68614A1268114656
:10114C001846FFF71BF8192000F0DCFA012000F01C
:10115C00D3F80346002B17D05D4B1B6801335C4A58
:10116C0013605B4B1B68632B02DD594B01221A6029
:10117C00574B1B68524A13604F4B1B68504A1268FE
:10118C0011461846FEF7FAFF022000F0B5F80346A8
:10119C00002B00F0AB804E4B1B68484A1360A5E057
:1011AC00414B1B68002B04D0FFF7BCFC192000F04E
:1011BC00A9FA3E4B1B68002B13D03D4B1B685A1CE5
:1011CC003B490A601846FFF76DFB394B1B68002B37
:1011DC0003F00103B8BF5B42354A1360322000F0C4
:1011EC007DFA002000F088F80346002B02D0314B2A
:1011FC0008221A70012000F07FF80346002B17D04C
:10120C00344B1B680133334A1360324B1B68632B1E
:10121C0002DD304B01221A602E4B1B68284A1360EA
:10122C00254B1B68264A126811461846FEF7A6FF86
:10123C00022000F061F80346002B59D0254B1B68A7
:10124C00224A136054E01B4B01221A701F4B1A6880
:10125C001A4B1B681A441C4B1B689A4208D01B4B38
:10126C0003221A60184B05221A60144B02221A60D2
:10127C00154B1B68104A1360144B1B68104A136003
:10128C00124B1B68642202FB03F3184600F012FA9F
:10129C00094B1B680A4A126811461846FEF76EFF86
:1012AC00322000F01BFA24E0B4000020AC00002037
:1012BC005C0000206000002054000020080000208A
:1012CC005800002010000020040000200000002026
:1012DC00140000200C00002000BF0AE000BF08E052
:1012EC0000BF06E000BF04E000BF02E000BF00E06A
:1012FC0000BF00BF80BD00BF80B483B000AF78607A
:10130C00094A7B6852F82330012B06D1064A7B68C8
:10131C00002142F82310012300E0002318460C376B
:10132C00BD4680BC704700BF9400002080B483B0E1
:10133C0000AF7860044A7B68012142F8231000BF9B
:10134C000C37BD4680BC70479400002080B582B03D
:10135C0000AF00237B606EE03B4A7B6852F8232091
:10136C003A497B6841F82320394A7B6852F823209C
:10137C0035497B6841F82320364A7B6832F81330B4
:10138C001946354800F0B2FD03461946304A7B68D1
:10139C0042F823102D4A7B6852F823202A497B6897
:1013AC0051F823309A4243D1274A7B6852F82320C4
:1013BC0027497B6851F823309A4239D1234A7B68FC
:1013CC0052F8232025497B6851F823309A4216D0D5
:1013DC001E4A7B6852F8232020497B6841F8232061
:1013EC001E4A7B6852F82330012B21D11C4A7B68A2
:1013FC00C82142F823107868FFF798FF18E0184AC4
:10140C007B6852F823305A1E15497B6841F823201B
:10141C00134A7B6852F82330002B09D1104A7B68A1
:10142C00C82142F823100D4A7B68002142F8231092
:10143C007B6801337B607B68022B8DDD00BF00BFB6
:10144C000837BD4680BD00BF700000207C00002026
:10145C0064000020180000200008014088000020D3
:10146C002000002080B500AF00F056FA00F00CF818
:10147C0000F0AAF800F044F8024801F0ABF9FFF7CD
:10148C0073FBFCE7CC00002080B590B000AF07F1F7
:10149C00180328220021184601F058FD3B1D00229C
:1014AC001A605A609A60DA601A610223BB610123E8
:1014BC00BB621023FB6200237B6307F11803184601
:1014CC0000F05CFD0346002B01D000F0EDF80F237B
:1014DC007B600023BB600023FB6000233B61002387
:1014EC007B613B1D0021184600F0C8FF0346002B12
:1014FC0001D000F0D9F800BF4037BD4680BD0000D8
:10150C0080B588B000AF07F10C0300221A605A6056
:10151C009A60DA603B1D00221A605A60274B4FF02C
:10152C0080421A60254B41F63F725A60234B0022D1
:10153C009A60224B0922DA60204B00221A611F4B61
:10154C0000229A611D4801F0F5F80346002B01D0EA
:10155C0000F0AAF84FF48053FB6007F10C03194616
:10156C00164801F08BFA0346002B01D000F09CF8D2
:10157C0000237B600023BB603B1D19460F4801F024
:10158C0057FC0346002B01D000F08EF80B4B5B6828
:10159C0001330A4AD268013202FB03F3084AB2FB58
:1015AC00F3F3FB614FF47A72FB69B2FBF3F3054A78
:1015BC00136000BF2037BD4680BD00BFCC000020AB
:1015CC0000127A00C800002080B586B000AF07F189
:1015DC00080300221A605A609A60DA60294B9B69F2
:1015EC00284A43F004039361264B9B6903F00403E0
:1015FC007B607B68234B9B69224A43F00803936111
:10160C00204B9B6903F008033B603B6800224FF2C0
:10161C007E011D4800F081FC00224FF6FF711B4833
:10162C0000F07BFC4FF27E03BB600123FB600023C8
:10163C003B6102237B6107F108031946124800F055
:10164C00DBFA4FF6FF73BB600123FB6000233B61A9
:10165C0002237B6107F1080319460C4800F0CCFA11
:10166C004FF4E063BB600023FB6000233B6107F198
:10167C0008031946044800F0BFFA00BF1837BD46EE
:10168C0080BD00BF0010024000080140000C01406A
:10169C0080B582B000AF786000F048F8FFF756FED6
:1016AC0000BF0837BD4680BD80B400AF72B600BF26
:1016BC00FEE7000080B483B000AF7860054A7B6819
:1016CC001360054B00221A6000BF0C37BD4680BC6E
:1016DC00704700BFA0000020A400002080B483B09D
:1016EC0000AF7860054A7B681360054B00221A60D6
:1016FC0000BF0C37BD4680BC704700BFA80000205F
:10170C00AC00002080B483B000AF7860054A7B68E1
:10171C001360054B00221A6000BF0C37BD4680BC1D
:10172C00704700BFB0000020B400002080B400AFB0
:10173C00194B1B68002B0BDD174B1B68013B164A22
:10174C001360154B1B68002B02DC144B01221A6032
:10175C00134B1B68002B0BDD114B1B68013B104A14
:10176C0013600F4B1B68002B02DC0E4B01221A601E
:10177C000D4B1B68002B0BDD0B4B1B68013B0A4A06
:10178C001360094B1B68002B02DC084B01221A600A
:10179C0000BFBD4680BC7047A0000020A400002004
:1017AC00A8000020AC000020B0000020B4000020F5
:1017BC0080B485B000AF154B9B69144A43F001030C
:1017CC009361124B9B6903F00103BB60BB680F4B29
:1017DC00DB690E4A43F08053D3610C4BDB6903F099
:1017EC0080537B607B680A4B5B68FB60FB6823F073
:1017FC00E063FB60FB6843F08063FB60044AFB68BA
:10180C00536000BF1437BD4680BC704700100240C7
:10181C000000014080B584B000AF78607B681B6825
:10182C00B3F1804F13D10C4BDB690B4A43F001032E
:10183C00D361094BDB6903F00103FB60FB680022F9
:10184C0000211C2000F0A1F91C2000F0BAF900BF07
:10185C001037BD4680BD00BF0010024080B400AF01
:10186C00FEE780B400AFFEE780B400AFFEE780B4C3
:10187C0000AFFEE780B400AFFEE780B400AF00BF5E
:10188C00BD4680BC704780B400AF00BFBD4680BC75
:10189C00704780B400AF00BFBD4680BC704780B5B8
:1018AC0000AF00F07FF800BF80BD000080B500AF36
:1018BC00024800F0DBFF00BF80BD00BFCC00002061
:1018CC0080B400AF00BFBD4680BC7047FFF7F8FF87
:1018DC000B480C490C4A002302E0D458C450043382
:1018EC00C4188C42F9D3094A094C002301E0136057
:1018FC000432A242FBD301F005FBFFF7B3FD7047A6
:10190C000000002038000020AC2F00083800002018
:10191C0018010020FEE7000080B500AF084B1B68E3
:10192C00074A43F010031360032000F023F90F2043
:10193C0000F008F8FFF73CFF0023184680BD00BFFD
:10194C000020024080B582B000AF7860124B1A685C
:10195C00124B1B7819464FF47A73B3FBF1F3B2FBBD
:10196C00F3F3184600F03BF90346002B01D001239A
:10197C000EE07B680F2B0AD8002279684FF0FF30FD
:10198C0000F003F9064A7B681360002300E0012392
:10199C0018460837BD4680BD2C00002034000020BE
:1019AC003000002080B400AF054B1B781A46054B65
:1019BC001B681344034A136000BFBD4680BC7047CC
:1019CC00340000201401002080B400AF024B1B68CF
:1019DC001846BD4680BC70471401002080B485B009
:1019EC0000AF78607B6803F00703FB600C4BDB688F
:1019FC00BB60BA684FF6FF031340BB60FB681A026A
:101A0C00BB68134343F0BF6343F40033BB60044A29
:101A1C00BB68D36000BF1437BD4680BC704700BFA5
:101A2C0000ED00E080B400AF044BDB681B0A03F050
:101A3C0007031846BD4680BC704700BF00ED00E0B0
:101A4C0080B483B000AF0346FB7197F90730002BCD
:101A5C000BDBFB7903F01F02064997F907305B0992
:101A6C00012000FA02F241F8232000BF0C37BD46DA
:101A7C0080BC704700E100E080B483B000AF034647
:101A8C003960FB7197F90730002B0ADB3B68DAB23F
:101A9C000C4997F907301201D2B20B4483F800239A
:101AAC000AE03B68DAB20849FB7903F00F03043B08
:101ABC001201D2B20B441A7600BF0C37BD4680BC63
:101ACC00704700BF00E100E000ED00E080B489B099
:101ADC0000AFF860B9607A60FB6803F00703FB6144
:101AEC00FB69C3F10703042B28BF0423BB61FB690B
:101AFC000433062B02D9FB69033B00E000237B6116
:101B0C004FF0FF32BB6902FA03F3DA43BB681A40A9
:101B1C007B699A404FF0FF317B6901FA03F3D9439B
:101B2C007B680B40134318462437BD4680BC704776
:101B3C0080B582B000AF78607B68013BB3F1807FE9
:101B4C0001D301230FE00A4A7B68013B53600F214C
:101B5C004FF0FF30FFF790FF054B00229A60044BCB
:101B6C0007221A60002318460837BD4680BD00BF07
:101B7C0010E000E080B582B000AF78607868FFF7C5
:101B8C002DFF00BF0837BD4680BD80B586B000AFC5
:101B9C000346B9607A60FB7300237B61FFF742FF59
:101BAC0078617A68B9687869FFF790FF024697F90F
:101BBC000F3011461846FFF75FFF00BF1837BD46C0
:101BCC0080BD80B582B000AF0346FB7197F907303A
:101BDC001846FFF735FF00BF0837BD4680BD80B5FE
:101BEC0082B000AF78607868FFF7A2FF0346184612
:101BFC000837BD4680BD000080B48BB000AF786064
:101C0C00396000237B6200233B6248E101227B6A3E
:101C1C0002FA03F3FB613B681B68FA691340BB6172
:101C2C00BA69FB699A4240F037813B685B68A34A0A
:101C3C0093425ED0A14A934275D8A14A934258D0A0
:101C4C009F4A93426FD89F4A934252D09D4A9342E7
:101C5C0069D89D4A93424CD09B4A934263D89B4A85
:101C6C00934246D0994A93425DD8122B2AD8122B14
:101C7C0059D801A252F823F0FF1C0008D91C000807
:101C8C00EB1C00082D1D0008331D0008331D000837
:101C9C00331D0008331D0008331D0008331D0008D8
:101CAC00331D0008331D0008331D0008331D0008C8
:101CBC00331D0008331D0008331D0008E11C00080B
:101CCC00F51C0008824A934213D02CE03B68DB6879
:101CDC003B6229E03B68DB6804333B6224E03B68F1
:101CEC00DB6808333B621FE03B68DB680C333B620C
:101CFC001AE03B689B68002B02D104233B6213E083
:101D0C003B689B68012B05D108233B627B68FA6911
:101D1C001A6109E008233B627B68FA695A6103E0A7
:101D2C0000233B6200E000BFBB69FF2B01D87B683E
:101D3C0001E07B6804337B61BB69FF2B02D87B6AB3
:101D4C009B0002E07B6A083B9B003B617B691A6845
:101D5C000F213B6901FA03F3DB431A40396A3B69F3
:101D6C0001FA03F31A437B691A603B685B6803F062
:101D7C008053002B00F09080564B9B69554A43F0E2
:101D8C0001039361534B9B6903F00103BB60BB6878
:101D9C00514A7B6A9B08023352F82330FB607B6A02
:101DAC0003F003039B000F2202FA03F3DB43FA68F0
:101DBC001340FB607B68494A93420DD07B68484ACC
:101DCC00934207D07B68474A934201D1022304E037
:101DDC00032302E0012300E000237A6A02F00302ED
:101DEC0092009340FA681343FB603B497B6A9B0863
:101DFC000233FA6841F823203B685B6803F48013D4
:101E0C00002B06D0384B9A683749BB6913438B605B
:101E1C0006E0354B9A68BB69DB43334913408B6052
:101E2C003B685B6803F40013002B06D02E4BDA687A
:101E3C002D49BB691343CB6006E02B4BDA68BB69B9
:101E4C00DB4329491340CB603B685B6803F40033E8
:101E5C00002B06D0244B5A682349BB6913434B60B3
:101E6C0006E0214B5A68BB69DB431F4913404B60AA
:101E7C003B685B6803F48033002B06D01A4B1A685E
:101E8C001949BB6913430B6006E0174B1A68BB6911
:101E9C00DB43154913400B607B6A01337B623B6863
:101EAC001A687B6A22FA03F3002B7FF4AFAE00BFF3
:101EBC0000BF2C37BD4680BC704700BF00003210FD
:101ECC000000311000002210000021100000121040
:101EDC0000001110001002400000014000080140F9
:101EEC00000C0140001001400004014080B485B09A
:101EFC0000AF78600B467B807B689A687B881340C8
:101F0C00002B02D00123FB7301E00023FB73FB7B4E
:101F1C0018461437BD4680BC704780B483B000AF00
:101F2C0078600B467B8013467B707B78002B03D04C
:101F3C007A887B681A6103E07B881A047B681A61D3
:101F4C0000BF0C37BD4680BC704780B485B000AF75
:101F5C0078600B467B807B68DB68FB607A88FB686B
:101F6C0013401A04FB68D9437B880B401A437B68E7
:101F7C001A6100BF1437BD4680BC704780B586B06F
:101F8C0000AF78607B68002B01D101236CE27B6889
:101F9C001B6803F00103002B00F08780924B5B68F9
:101FAC0003F00C03042B0CD08F4B5B6803F00C0379
:101FBC00082B12D18C4B5B6803F48033B3F5803F54
:101FCC000BD1894B1B6803F40033002B6CD07B685E
:101FDC005B68002B68D1012346E27B685B68B3F534
:101FEC00803F06D1804B1B687F4A43F480331360DB
:101FFC002EE07B685B68002B0CD17B4B1B687A4A0C
:10200C0023F480331360784B1B68774A23F48023C6
:10201C0013601DE07B685B68B3F5A02F0CD1724B8D
:10202C001B68714A43F4802313606F4B1B686E4A24
:10203C0043F4803313600BE06B4B1B686A4A23F448
:10204C0080331360684B1B68674A23F4802313604A
:10205C007B685B68002B13D0FFF7B6FC386108E097
:10206C00FFF7B2FC02463B69D31A642B01D9032358
:10207C00FAE15D4B1B6803F40033002BF0D014E045
:10208C00FFF7A2FC386108E0FFF79EFC02463B69B3
:10209C00D31A642B01D90323E6E1534B1B6803F4D9
:1020AC000033002BF0D100E000BF7B681B6803F00D
:1020BC000203002B63D04C4B5B6803F00C03002B2A
:1020CC000BD0494B5B6803F00C03082B1CD1464B1F
:1020DC005B6803F48033002B16D1434B1B6803F071
:1020EC000203002B05D07B681B69012B01D0012357
:1020FC00BAE13D4B1B6823F0F8027B685B69DB009F
:10210C00394913430B603AE07B681B69002B20D0E4
:10211C00364B01221A60FFF757FC386108E0FFF7D5
:10212C0053FC02463B69D31A022B01D903239BE1D2
:10213C002D4B1B6803F00203002BF0D02A4B1B68BD
:10214C0023F0F8027B685B69DB00274913430B60C3
:10215C0015E0264B00221A60FFF736FC386108E0C8
:10216C00FFF732FC02463B69D31A022B01D9032339
:10217C007AE11D4B1B6803F00203002BF0D17B6846
:10218C001B6803F00803002B3AD07B689B69002B7B
:10219C0019D0174B01221A60FFF716FC386108E0C2
:1021AC00FFF712FC02463B69D31A022B01D9032319
:1021BC005AE10D4B5B6A03F00203002BF0D00120B7
:1021CC0000F09AFA1CE00A4B00221A60FFF7FCFBA5
:1021DC0038610FE0FFF7F8FB02463B69D31A022B7C
:1021EC0008D9032340E100BF001002400000424226
:1021FC00800442429E4B5B6A03F00203002BE9D140
:10220C007B681B6803F00403002B00F0A6800023FE
:10221C00FB75974BDB6903F08053002B0DD1944B6E
:10222C00DB69934A43F08053D361914BDB6903F034
:10223C008053BB60BB680123FB758E4B1B6803F49A
:10224C008073002B18D18B4B1B688A4A43F4807324
:10225C001360FFF7B9FB386108E0FFF7B5FB0246E6
:10226C003B69D31A642B01D90323FDE0814B1B6816
:10227C0003F48073002BF0D07B68DB68012B06D154
:10228C007B4B1B6A7A4A43F0010313622DE07B6897
:10229C00DB68002B0CD1764B1B6A754A23F00103CB
:1022AC001362734B1B6A724A23F0040313621CE023
:1022BC007B68DB68052B0CD16D4B1B6A6C4A43F0B9
:1022CC00040313626A4B1B6A694A43F001031362ED
:1022DC000BE0674B1B6A664A23F001031362644BE5
:1022EC001B6A634A23F0040313627B68DB68002BD0
:1022FC0015D0FFF769FB38610AE0FFF765FB024672
:10230C003B69D31A41F28832934201D90323ABE0E3
:10231C00574B1B6A03F00203002BEED014E0FFF7BF
:10232C0053FB38610AE0FFF74FFB02463B69D31AB7
:10233C0041F28832934201D9032395E04C4B1B6A3E
:10234C0003F00203002BEED1FB7D012B05D1484B92
:10235C00DB69474A23F08053D3617B68DB69002B30
:10236C0000F08180424B5B6803F00C03082B61D0BA
:10237C007B68DB69022B46D13F4B00221A60FFF7CA
:10238C0023FB386108E0FFF71FFB02463B69D31AB9
:10239C00022B01D9032367E0354B1B6803F0007354
:1023AC00002BF0D17B681B6AB3F5803F08D1304B12
:1023BC005B6823F400327B689B682D4913434B60A8
:1023CC002B4B5B6823F474127B68196A7B685B6A1D
:1023DC000B43274913434B60274B01221A60FFF72D
:1023EC00F3FA386108E0FFF7EFFA02463B69D31ABB
:1023FC00022B01D9032337E01D4B1B6803F000733C
:10240C00002BF0D02FE01C4B00221A60FFF7DCFAF7
:10241C00386108E0FFF7D8FA02463B69D31A022B61
:10242C0001D9032320E0124B1B6803F00073002B2F
:10243C00F0D118E07B68DB69012B01D1012313E09B
:10244C000B4B5B68FB60FB6803F480327B681B6A98
:10245C009A4206D1FB6803F470127B685B6A9A425D
:10246C0001D0012300E0002318461837BD4680BD7B
:10247C0000100240007000406000424280B584B001
:10248C0000AF786039607B68002B01D10123D0E06C
:10249C006A4B1B6803F007033A689A4210D9674BE2
:1024AC001B6823F0070265493B6813430B60634BC1
:1024BC001B6803F007033A689A4201D00123B8E085
:1024CC007B681B6803F00203002B20D07B681B6821
:1024DC0003F00403002B05D0594B5B68584A43F4B6
:1024EC00E06353607B681B6803F00803002B05D086
:1024FC00534B5B68524A43F460535360504B5B68D8
:10250C0023F0F0027B689B684D4913434B607B685A
:10251C001B6803F00103002B40D07B685B68012B28
:10252C0007D1474B1B6803F40033002B15D1012353
:10253C007FE07B685B68022B07D1414B1B6803F083
:10254C000073002B09D1012373E03D4B1B6803F092
:10255C000203002B01D101236BE0394B5B6823F0A4
:10256C0003027B685B68364913434B60FFF72CFA18
:10257C00F8600AE0FFF728FA0246FB68D31A41F22A
:10258C008832934201D9032353E02D4B5B6803F04F
:10259C000C027B685B689B009A42EBD1274B1B6853
:1025AC0003F007033A689A4210D2244B1B6823F0BD
:1025BC00070222493B6813430B60204B1B6803F056
:1025CC0007033A689A4201D0012332E07B681B680A
:1025DC0003F00403002B08D0194B5B6823F4E06272
:1025EC007B68DB68164913434B607B681B6803F000
:1025FC000803002B09D0124B5B6823F460527B68F4
:10260C001B69DB000E4913434B6000F021F80246B6
:10261C000B4B5B681B0903F00F030A49CB5C22FAD6
:10262C0003F3094A1360094B1B681846FFF78AF934
:10263C00002318461037BD4680BD00BF0020024065
:10264C0000100240802F00082C00002030000020D9
:10265C0080B487B000AF0023FB600023BB60002375
:10266C007B6100237B6000233B611E4B5B68FB603E
:10267C00FB6803F00C03042B02D0082B03D027E0DB
:10268C00194B3B6127E0FB689B0C03F00F03174AC7
:10269C00D35C7B60FB6803F48033002B10D0114BB0
:1026AC005B685B0C03F00103114AD35CBB607B6875
:1026BC000D4A02FB03F2BB68B2FBF3F37B6104E04F
:1026CC007B680C4A02FB03F37B617B693B6102E094
:1026DC00054B3B6100BF3B6918461C37BD4680BCAF
:1026EC00704700BF0010024000127A00902F0008C3
:1026FC00A02F000800093D0080B485B000AF7860C1
:10270C000A4B1B680A4AA2FB03235B0A7A6802FB8A
:10271C0003F3FB6000BFFB685A1EFA60002BF9D173
:10272C0000BF00BF1437BD4680BC70472C00002092
:10273C00D34D621080B582B000AF78607B68002BFF
:10274C0001D1012341E07B6893F83D30DBB2002BD3
:10275C0006D17B68002283F83C207868FFF75AF892
:10276C007B68022283F83D207B681A687B680433FF
:10277C001946104600F06EFA7B68012283F8462059
:10278C007B68012283F83E207B68012283F83F207E
:10279C007B68012283F840207B68012283F841206A
:1027AC007B68012283F842207B68012283F8432056
:1027BC007B68012283F844207B68012283F8452042
:1027CC007B68012283F83D20002318460837BD465C
:1027DC0080BD000080B485B000AF78607B6893F852
:1027EC003D30DBB2012B01D0012335E07B680222A6
:1027FC0083F83D207B681B68DA687B681B6842F0B5
:10280C000102DA607B681B68164A934209D07B6828
:10281C001B68B3F1804F04D07B681B68124A93424B
:10282C0011D17B681B689B6803F00703FB60FB6896
:10283C00062B10D07B681B681A687B681B6842F0FB
:10284C0001021A6007E07B681B681A687B681B68CA
:10285C0042F001021A60002318461437BD4680BCB2
:10286C00704700BF002C01400004004080B582B0CE
:10287C0000AF78607B681B681B6903F00203022BB6
:10288C0022D17B681B68DB6803F00203022B1BD18F
:10289C007B681B686FF002021A617B6801221A7751
:1028AC007B681B689B6903F00303002B03D07868DB
:1028BC0000F0B4F905E0786800F0A7F9786800F04A
:1028CC00B6F97B6800221A777B681B681B6903F0DA
:1028DC000403042B22D17B681B68DB6803F0040320
:1028EC00042B1BD17B681B686FF004021A617B6898
:1028FC0002221A777B681B689B6903F44073002BD8
:10290C0003D0786800F08AF905E0786800F07DF96A
:10291C00786800F08CF97B6800221A777B681B685A
:10292C001B6903F00803082B22D17B681B68DB684A
:10293C0003F00803082B1BD17B681B686FF008029F
:10294C001A617B6804221A777B681B68DB6903F0C9
:10295C000303002B03D0786800F060F905E0786879
:10296C0000F053F9786800F062F97B6800221A775E
:10297C007B681B681B6903F01003102B22D17B684A
:10298C001B68DB6803F01003102B1BD17B681B68E2
:10299C006FF010021A617B6808221A777B681B683B
:1029AC00DB6903F44073002B03D0786800F036F930
:1029BC0005E0786800F029F9786800F038F97B6850
:1029CC0000221A777B681B681B6903F00103012B3B
:1029DC000ED17B681B68DB6803F00103012B07D168
:1029EC007B681B686FF001021A617868FEF750FE75
:1029FC007B681B681B6903F08003802B0ED17B68FE
:102A0C001B68DB6803F08003802B07D17B681B6895
:102A1C006FF080021A61786800F06BFA7B681B68B3
:102A2C001B6903F04003402B0ED17B681B68DB68ED
:102A3C0003F04003402B07D17B681B686FF040020A
:102A4C001A61786800F0FCF87B681B681B6903F05E
:102A5C002003202B0ED17B681B68DB6803F020035E
:102A6C00202B07D17B681B686FF020021A617868F5
:102A7C0000F036FA00BF0837BD4680BD80B584B083
:102A8C0000AF786039600023FB737B6893F83C30AF
:102A9C00012B01D10223B4E07B68012283F83C2096
:102AAC007B68022283F83D207B681B689B68BB60B7
:102ABC00BB6823F07703BB60BB6823F47F43BB6028
:102ACC007B681B68BA689A603B681B68B3F5005F4B
:102ADC003ED0B3F5005F00F28780B3F5805F00F065
:102AEC008680B3F5805F7FD8702B1AD0702B7BD883
:102AFC00602B50D0602B77D8502B3CD0502B73D8F8
:102B0C00402B58D0402B6FD8302B64D0302B6BD847
:102B1C00202B60D0202B67D8002B5CD0102B5AD0E8
:102B2C0062E07B6818683B6899683B685A683B6848
:102B3C00DB6800F05EF97B681B689B68BB60BB6858
:102B4C0043F07703BB607B681B68BA689A604FE000
:102B5C007B6818683B6899683B685A683B68DB6817
:102B6C0000F047F97B681B689A687B681B6842F425
:102B7C0080429A603CE07B6818683B6859683B6807
:102B8C00DB681A4600F0BEF87B681B6850211846BB
:102B9C0000F015F92CE07B6818683B6859683B68B5
:102BAC00DB681A4600F0DCF87B681B68602118466D
:102BBC0000F005F91CE07B6818683B6859683B68B5
:102BCC00DB681A4600F09EF87B681B6840211846AB
:102BDC0000F0F5F80CE07B681A683B681B68194636
:102BEC00104600F0ECF803E00123FB7300E000BF9B
:102BFC007B68012283F83D207B68002283F83C200F
:102C0C00FB7B18461037BD4680BD80B483B000AF47
:102C1C00786000BF0C37BD4680BC704780B483B071
:102C2C0000AF786000BF0C37BD4680BC704780B4E5
:102C3C0083B000AF786000BF0C37BD4680BC7047D6
:102C4C0080B483B000AF786000BF0C37BD4680BC49
:102C5C007047000080B485B000AF786039607B6845
:102C6C001B68FB607B68254A934207D07B68B3F1F5
:102C7C00804F03D07B68224A934208D1FB6823F033
:102C8C007003FB603B685B68FA681343FB607B680E
:102C9C001A4A934207D07B68B3F1804F03D07B680C
:102CAC00174A934208D1FB6823F44073FB603B68DE
:102CBC00DB68FA681343FB60FB6823F080023B6817
:102CCC005B691343FB607B68FA681A603B689A681F
:102CDC007B68DA623B681A687B689A627B68074A91
:102CEC00934203D13B681A697B681A637B680122A3
:102CFC005A6100BF1437BD4680BC7047002C0140A0
:102D0C000004004080B487B000AFF860B9607A600E
:102D1C00FB681B6A7B61FB681B6A23F00102FB6882
:102D2C001A62FB689B693B613B6923F0F0033B61D2
:102D3C007B681B013A6913433B617B6923F00A03EF
:102D4C007B617A69BB6813437B61FB683A699A6162
:102D5C00FB687A691A6200BF1C37BD4680BC70479D
:102D6C0080B487B000AFF860B9607A60FB681B6A0A
:102D7C007B61FB681B6A23F01002FB681A62FB681C
:102D8C009B693B613B6923F470433B617B681B038C
:102D9C003A6913433B617B6923F0A0037B61BB68F9
:102DAC001B017A6913437B61FB683A699A61FB6882
:102DBC007A691A6200BF1C37BD4680BC704780B46C
:102DCC0085B000AF786039607B689B68FB60FB68FE
:102DDC0023F07003FB603A68FB68134343F007036E
:102DEC00FB607B68FA689A6000BF1437BD4680BCF4
:102DFC00704780B487B000AFF860B9607A603B6010
:102E0C00FB689B687B617B6923F47F437B613B6838
:102E1C001A027B681A43BB6813437A6913437B61BC
:102E2C00FB687A699A6000BF1C37BD4680BC70474E
:102E3C0080B485B000AF786039607B6893F83C3023
:102E4C00012B01D1022341E07B68012283F83C2055
:102E5C007B68022283F83D207B681B685B68FB6003
:102E6C007B681B689B68BB60FB6823F07003FB608E
:102E7C003B681B68FA681343FB607B681B68FA6845
:102E8C005A607B681B68144A934209D07B681B68A4
:102E9C00B3F1804F04D07B681B68104A93420CD16D
:102EAC00BB6823F08003BB603B685B68BA68134364
:102EBC00BB607B681B68BA689A607B68012283F8E8
:102ECC003D207B68002283F83C20002318461437F1
:102EDC00BD4680BC704700BF002C01400004004080
:102EEC0080B483B000AF786000BF0C37BD4680BCA7
:102EFC00704780B483B000AF786000BF0C37BD461C
:102F0C0080BC704770B500260C4D0D4C641BA41092
:102F1C00A64209D100F022F800260A4D0A4C641B87
:102F2C00A410A64205D170BD55F8043B9847013654
:102F3C00EEE755F8043B98470136F2E7A42F00085A
:102F4C00A42F0008A42F0008A82F00080346024451
:102F5C00934200D1704703F8011BF9E7F8B500BFA5
:102F6C00F8BC08BC9E467047F8B500BFF8BC08BC5E
:042F7C009E467047B6
:102F80000000000000000000010203040607080919
:102F900002030405060708090A0B0C0D0E0F10109A
:042FA000010200002A
:042FA40031010008EF
:042FA8000D0100080F
:102FAC000300000005000000020000000300000008
:102FBC0005000000020000000001000200040000F7
:102FCC00C8000000C8000000C80000000024F40085
:082FDC001000000001000000DC
:04000005080018D9FE
:00000001FF
