:020000040800F2
:100000000028002075190008051900080B190008C0
:1000100011190008171900081D1900080000000038
:10002000000000000000000000000000231900088C
:100030002F190008000000003B19000847190008AC
:10004000BD190008BD190008BD190008BD19000838
:10005000BD190008BD190008BD190008BD19000828
:10006000BD190008BD190008BD190008BD19000818
:10007000BD190008BD190008BD190008BD19000808
:10008000BD190008BD190008BD190008BD190008F8
:10009000BD190008BD190008BD190008BD190008E8
:1000A000BD190008BD190008BD190008BD190008D8
:1000B00055190008BD19000800000000BD1900080E
:1000C000BD1900080000000000000000BD19000874
:1000D00000000000BD190008BD1900080000000064
:1000E000BD190008BD190008BD1900080000000076
:1000F0000000000000000000000000000000000000
:0C01000000000000000000005FF808F1A3
:10010C0010B5054C237833B9044B13B10448AFF345
:10011C0000800123237010BD380000200000000077
:10012C000430000808B5034B1BB103490348AFF377
:10013C00008008BD000000003C00002004300008D6
:10014C0080B500AF01224FF480510B4801F033FF12
:10015C0001224FF40051084801F02DFF01224FF409
:10016C008041054801F027FF01224FF4004102486D
:10017C0001F021FF00BF80BD000C014080B483B0B2
:10018C0000AF786039607B68184A82FB03129210CA
:10019C00DB17D31A164A13607968144B83FB0123BF
:1001AC009A10CB17D21A13469B0013445B00CA1A41
:1001BC000F4B5A603B680D4A82FB03129210DB17FF
:1001CC00D31A0B4A93603968084B83FB01239A10AE
:1001DC00CB17D21A13469B0013445B00CA1A044B6C
:1001EC00DA6000BF0C37BD4680BC70476766666638
:1001FC00C000002080B582B000AF78607B68092B0E
:10020C0000F2808101A252F823F000BF41020008E5
:10021C0089020008D10200081903000861030008D4
:10022C00A9030008F1030008390400088104000840
:10023C00C904000800220121B44801F0BCFE0022D0
:10024C000221B24801F0B7FE00220421AF4801F0B0
:10025C00B2FE00220821AD4801F0ADFE00221021B3
:10026C00AA4801F0A8FE00222021A84801F0A3FE14
:10027C0001224021A54801F09EFE43E1012201210B
:10028C00A24801F098FE00220221A04801F093FE42
:10029C00002204219D4801F08EFE012208219B487A
:1002AC0001F089FE01221021984801F084FE012200
:1002BC002021964801F07FFE01224021934801F055
:1002CC007AFE1FE100220121904801F074FE002209
:1002DC0002218E4801F06FFE012204218B4801F0AF
:1002EC006AFE00220821894801F065FE00221021D7
:1002FC00864801F060FE01222021844801F05BFE5B
:10030C0000224021814801F056FEFBE00022012131
:10031C007E4801F050FE002202217C4801F04BFE89
:10032C0000220421794801F046FE0022082177487A
:10033C0001F041FE01221021744801F03CFE012223
:10034C002021724801F037FE002240216F4801F055
:10035C0032FED7E0012201216C4801F02CFE002274
:10036C0002216A4801F027FE00220421674801F0AF
:10037C0022FE01220821654801F01DFE01221021F8
:10038C00624801F018FE00222021604801F013FEA3
:10039C00002240215D4801F00EFEB3E00022012155
:1003AC005A4801F008FE01220221584801F003FED0
:1003BC0000220421554801F0FEFD0022082153487B
:1003CC0001F0F9FD01221021504801F0F4FD00224A
:1003DC0020214E4801F0EFFD002240214B4801F056
:1003EC00EAFD8FE000220121484801F0E4FD0122E2
:1003FC000221464801F0DFFD00220421434801F0B0
:10040C00DAFD00220821414801F0D5FD002210211F
:10041C003E4801F0D0FD002220213C4801F0CBFDEC
:10042C0000224021394801F0C6FD6BE00022012179
:10043C00364801F0C0FD00220221344801F0BBFD1A
:10044C0000220421314801F0B6FD012208212F4879
:10045C0001F0B1FD012210212C4801F0ACFD01226C
:10046C0020212A4801F0A7FD01224021274801F054
:10047C00A2FD47E000220121244801F09CFD00224E
:10048C000221224801F097FD002204211F4801F0AF
:10049C0092FD002208211D4801F08DFD0022102143
:1004AC001A4801F088FD00222021184801F083FD34
:1004BC0000224021154801F07EFD23E0002201219D
:1004CC00124801F078FD00220221104801F073FD62
:1004DC00002204210D4801F06EFD002208210B487A
:1004EC0001F069FD01221021084801F064FD002291
:1004FC002021064801F05FFD00224021034801F055
:10050C005AFD00BF00BF0837BD4680BD000C01403E
:10051C0080B582B000AF78607B68092B00F2BC819B
:10052C0001A252F823F000BF5D050008B1050008D8
:10053C000506000859060008AD060008010700086A
:10054C0055070008A9070008FD0700085108000816
:10055C0000228021D24801F02EFD00224FF4807140
:10056C00CF4801F028FD00224FF40071CC4801F077
:10057C0022FD00224FF48061C94801F01CFD0022CD
:10058C004FF40061C64801F016FD00224FF4805173
:10059C00C34801F010FD01224FF40051C04801F096
:1005AC000AFD79E101228021BD4801F004FD002201
:1005BC004FF48071BA4801F0FEFC00224FF4007138
:1005CC00B74801F0F8FC01224FF48061B44801F007
:1005DC00F2FC01224FF40061B14801F0ECFC012265
:1005EC004FF48051AE4801F0E6FC01224FF400516B
:1005FC00AB4801F0E0FC4FE100228021A84801F05B
:10060C00DAFC00224FF48071A54801F0D4FC0122E1
:10061C004FF40071A24801F0CEFC00224FF480612F
:10062C009F4801F0C8FC00224FF400619C4801F087
:10063C00C2FC01224FF48051994801F0BCFC00220D
:10064C004FF40051964801F0B6FC25E100228021C0
:10065C00934801F0B0FC00224FF48071904801F0F7
:10066C00AAFC00224FF400718D4801F0A4FC00227A
:10067C004FF480618A4801F09EFC01224FF4006126
:10068C00874801F098FC01224FF48051844801F016
:10069C0092FC00224FF40051814801F08CFCFBE0ED
:1006AC00012280217E4801F086FC00224FF48071EB
:1006BC007B4801F080FC00224FF40071784801F077
:1006CC007AFC01224FF48061754801F074FC012220
:1006DC004FF40061724801F06EFC00224FF480511F
:1006EC006F4801F068FC00224FF400516C4801F097
:1006FC0062FCD1E000228021694801F05CFC0122FF
:10070C004FF48071664801F056FC00224FF40071E2
:10071C00634801F050FC00224FF48061604801F006
:10072C004AFC01224FF400615D4801F044FC0022B8
:10073C004FF480515A4801F03EFC00224FF4005116
:10074C00574801F038FCA7E000228021544801F002
:10075C0032FC01224FF48071514801F02CFC002234
:10076C004FF400714E4801F026FC00224FF48061DA
:10077C004B4801F020FC00224FF40061484801F086
:10078C001AFC00224FF48051454801F014FC002261
:10079C004FF40051424801F00EFC7DE00022802114
:1007AC003F4801F008FC00224FF480713C4801F0F6
:1007BC0002FC00224FF40071394801F0FCFB0122CD
:1007CC004FF48061364801F0F6FB01224FF40061D2
:1007DC00334801F0F0FB01224FF48051304801F016
:1007EC00EAFB01224FF400512D4801F0E4FB53E0E9
:1007FC00002280212A4801F0DEFB00224FF4807198
:10080C00274801F0D8FB00224FF40071244801F076
:10081C00D2FB00224FF48061214801F0CCFB002276
:10082C004FF400611E4801F0C6FB00224FF48051CA
:10083C001B4801F0C0FB00224FF40051184801F096
:10084C00BAFB29E000228021154801F0B4FB0022FC
:10085C004FF48071124801F0AEFB00224FF400718E
:10086C000F4801F0A8FB00224FF480610C4801F006
:10087C00A2FB01224FF40061094801F09CFB00220D
:10088C004FF48051064801F096FB00224FF40051C2
:10089C00034801F090FB00BF00BF0837BD4680BD88
:1008AC00000C014080B582B000AF78607B68002BF3
:1008BC0003D07B68012B19D031E000224FF480511A
:1008CC00204801F078FB01224FF400511D4801F043
:1008DC0072FB00224FF480411A4801F06CFB01229C
:1008EC004FF40041174801F066FB18E001224FF469
:1008FC008051144801F05FFB00224FF40051114865
:10090C0001F059FB01224FF480410E4801F053FBDA
:10091C0000224FF400410B4801F04DFB00BF0A4A86
:10092C007B6852F823301846FFF764FC7B6802336F
:10093C00054A52F823301846FFF7EAFD00BF083786
:10094C00BD4680BD00080140C000002080B500AF4E
:10095C00012202210E4801F02EFB012204210C4839
:10096C0001F029FB01220821094801F024FB012296
:10097C001021074801F01FFB01222021044801F03F
:10098C001AFB01224021024801F015FB00BF80BD7B
:10099C000008014080B500AF01220221074801F098
:1009AC000AFB00220421054801F005FB0122082165
:1009BC00024801F000FB00BF80BD00BF00080140F1
:1009CC0080B500AF01220221074801F0F4FA0122A0
:1009DC000421054801F0EFFA00220821024801F039
:1009EC00EAFA00BF80BD00BF0008014080B500AF2F
:1009FC0000220221074801F0DEFA012204210548F9
:100A0C0001F0D9FA01220821024801F0D4FA00BF02
:100A1C0080BD00BF0008014080B500AF012210214D
:100A2C00074801F0C8FA00222021054801F0C3FA5A
:100A3C0001224021024801F0BEFA00BF80BD00BF78
:100A4C000008014080B500AF01221021074801F0D9
:100A5C00B2FA01222021054801F0ADFA0022402112
:100A6C00024801F0A8FA00BF80BD00BF0008014099
:100A7C0080B500AF00221021074801F09CFA01223A
:100A8C002021054801F097FA01224021024801F08B
:100A9C0092FA00BF80BD00BF0008014080B500AFD6
:100AAC00012202210D4801F086FA04210B4801F0C5
:100ABC009AFA01220821094801F07DFA012210213D
:100ACC00064801F078FA2021044801F08CFA012242
:100ADC004021024801F06FFA00BF80BD00080140C0
:100AEC0080B500AF012202210D4801F064FA012209
:100AFC0004210B4801F05FFA0821094801F073FA50
:100B0C0001221021064801F056FA01222021044846
:100B1C0001F051FA4021024801F065FA00BF80BD96
:100B2C000008014080B500AF02210E4801F05BFACD
:100B3C00012204210B4801F03EFA01220821094848
:100B4C0001F039FA1021074801F04DFA0122202159
:100B5C00044801F030FA01224021024801F02BFA3E
:100B6C0000BF80BD0008014080B500AF9A4B1B78D8
:100B7C00082B00F2D88301A252F823F0AD0B000829
:100B8C00F90B0008E70C0008190E0008070F000805
:100B9C003910000805110008D1110008A91200082D
:100BAC00FFF7D4FEFFF7CCFA8B4B01221A708B4B5C
:100BBC001B688B4A13608B4B1B688B4A1360894BE9
:100BCC001B68642202FB03F3184600F099FD6420B5
:100BDC0000F0AAFD322000F0BBFD814B1B68824A5D
:100BEC00126811461846FFF7C9FA9CE3FFF7D2FECC
:100BFC00FFF73EFF7D4B1B681846FFF753FE7C4BFF
:100C0C001B68002B0AD07B4B1B68642202FB03F38E
:100C1C00184600F075FD704B02221A70764B1B685B
:100C2C00002B1CD0642000F07FFD6D4B1B68013B3A
:100C3C006B4A13606C4B1B68013B6B4A13606A4B2D
:100C4C001B68002B03DC6B4B1B68674A1360644BFF
:100C5C001B68654A126811461846FFF78FFA674BF6
:100C6C001B68002B10D0322000F072FD5F4B1B680C
:100C7C0001335E4A13605D4B1B68002B03F00103CC
:100C8C00B8BF5B42594A1360002000F05BFB03467F
:100C9C00002B00F03B83504B05221A70514B1B6804
:100CAC00574A13604D4B1B68564A1360514B1B68D7
:100CBC00554A13604A4B02221A60484B1B684A4A39
:100CCC001360474B1B68484A126811461846FFF7D9
:100CDC0055FA192000F050FD18E3FFF75BFEFFF703
:100CEC00B1FE424B1B681846FFF7DCFD404B1B68FE
:100CFC00002B0AD03B4B1B68642202FB03F3184603
:100D0C0000F0FEFC344B03221A703B4B1B68002B8B
:100D1C0024D0642000F008FD314B1B68013B304AA5
:100D2C001360314B1B68013B2F4A13602C4B1B6823
:100D3C00002B03DC2B4B1B68294A13602A4B1B68C6
:100D4C00002B03DC254B1B68274A1360244B1B68C4
:100D5C00254A126811461846FFF710FA274B1B68F4
:100D6C00002B10D0322000F0F3FC204B1B68013319
:100D7C001E4A13601D4B1B68002B03F00103B8BF08
:100D8C005B421A4A1360002000F0DCFA0346002B89
:100D9C0000F0BE82104B05221A70124B1B68184AC9
:100DAC0013600E4B1B68174A1360124B1B68164AD4
:100DBC0013600B4B02221A60084B1B680A4A136023
:100DCC00074B1B68084A126811461846FFF7D6F9FC
:100DDC00192000F0D1FC9BE26000002004000020F0
:100DEC005400002000000020580000205C0000206F
:100DFC00A400002008000020AC000020B40000205B
:100E0C000C0000201000002014000020FFF7EEFD65
:100E1C00FFF702FE784B1B681846FFF743FD774B34
:100E2C001B68002B0AD0764B1B68642202FB03F371
:100E3C00184600F065FC734B04221A70724B1B6849
:100E4C00002B1CD0642000F06FFC704B1B68013B26
:100E5C006E4A13606E4B1B68013B6D4A13606B4B03
:100E6C001B68002B03DC664B1B68684A1360674BDE
:100E7C001B68674A126811461846FFF77FF9654BE5
:100E8C001B68002B10D0322000F062FC5A4B1B6800
:100E9C000133594A1360584B1B68002B03F00103B4
:100EAC00B8BF5B42544A1360002000F04BFA034673
:100EBC00002B00F02F82534B05221A70564B1B68E7
:100ECC00564A1360564B1B68564A13604C4B1B68B2
:100EDC00554A13604D4B02221A60514B1B684C4A09
:100EEC0013604A4B1B684A4A126811461846FFF7B2
:100EFC0045F9192000F040FC0CE2FFF761FDFFF70B
:100F0C008BFD3D4B1B681846FFF7CCFC3B4B1B681D
:100F1C00002B0AD0404B1B68642202FB03F31846DB
:100F2C0000F0EEFB374B01221A70374B1B68002B7D
:100F3C0024D0642000F0F8FB344B1B68013B334A8F
:100F4C001360334B1B68013B314A13602F4B1B68FA
:100F5C00002B03DC324B1B682C4A13602C4B1B6898
:100F6C00002B03DC2C4B1B68294A1360274B1B6896
:100F7C00274A126811461846FFF700F9254B1B68E3
:100F8C00002B10D0322000F0E3FB1B4B1B6801330D
:100F9C00194A1360184B1B68002B03F00103B8BFF0
:100FAC005B42154A1360002000F0CCF90346002B7D
:100FBC0000F0B281134B05221A70174B1B68174AAD
:100FCC001360174B1B68174A13600D4B1B68164AAE
:100FDC0013600E4B02221A60114B1B680C4A1360F3
:100FEC000A4B1B680A4A126811461846FFF7C6F8E6
:100FFC00192000F0C1FB8FE15C000020A400002050
:10100C000800002060000020AC00002054000020EC
:10101C0058000020B4000020000000200C0000202C
:10102C000400002010000020140000208F4B1B68CF
:10103C00002B04D0192000F09FFBFFF72FFD8C4BE9
:10104C001B68002B13D0322000F082FB894B1B68ED
:10105C005A1C88490A601846FFF724FC854B1B680C
:10106C00002B03F00103B8BF5B42824A13600020DF
:10107C0000F068F90346002B14D07F4B06221A703F
:10108C007E4B03221A607E4B1B687E4A13607B4B9F
:10109C001B687C4A126811461846FFF76FF8192036
:1010AC0000F06AFB012000F04DF90346002B17D02D
:1010BC00754B1B680133744A1360734B1B68632BAD
:1010CC0002DD714B01221A606F4B1B686D4A136075
:1010DC006A4B1B686B4A126811461846FFF74EF8AC
:1010EC00022000F02FF90346002B00F01781664B0D
:1010FC001B68664A136011E15C4B1B68002B04D023
:10110C00192000F039FBFFF7EBFC594B1B68002B47
:10111C0013D0322000F01CFB564B1B685A1C55494F
:10112C000A601846FFF7BEFB524B1B68002B03F0FE
:10113C000103B8BF5B424F4A1360002000F002F974
:10114C000346002B14D04C4B07221A704B4B042235
:10115C001A604F4B1B684B4A1360484B1B68494A3B
:10116C00126811461846FFF709F8192000F004FB25
:10117C00012000F0E7F80346002B17D0454B1B6805
:10118C000133444A1360434B1B68632B02DD414B14
:10119C0001221A603F4B1B683A4A1360374B1B689D
:1011AC00384A126811461846FEF7E8FF022000F094
:1011BC00C9F80346002B00F0B380364B1B68304A4D
:1011CC001360ADE0294B1B68002B04D0192000F0F4
:1011DC00D3FAFFF7A7FC264B1B68002B13D0322049
:1011EC0000F0B6FA234B1B685A1C22490A601846B9
:1011FC00FFF758FB1F4B1B68002B03F00103B8BF14
:10120C005B421C4A1360002000F09CF80346002B44
:10121C0002D0194B08221A70012000F093F80346F3
:10122C00002B17D01C4B1B6801331B4A13601A4B45
:10123C001B68632B02DD184B01221A60164B1B68CE
:10124C00104A13600D4B1B680E4A12681146184663
:10125C00FEF794FF022000F075F80346002B61D0D6
:10126C000D4B1B680A4A13605CE000BFBC000020F9
:10127C00B40000205C00002060000020540000201E
:10128C00080000205800002010000020040000205E
:10129C0000000020140000200C000020FFF756FB7B
:1012AC00FEF74EFF214B01221A70214B1A68214B7D
:1012BC001B681A44204B1B689A4208D01C4B032213
:1012CC001A601D4B05221A601A4B02221A601A4B27
:1012DC001B681A4A1360164B1B68194A1360144B8F
:1012EC001B68642202FB03F3184600F009FA642021
:1012FC0000F01AFA012000F02BFA104B1B68104A70
:10130C00126811461846FEF739FF0CE000BF0AE0E0
:10131C0000BF08E000BF06E000BF04E000BF02E031
:10132C0000BF00E000BF00BF80BD00BF6000002018
:10133C0000000020080000200400002054000020C1
:10134C005800002080B483B000AF7860094A7B68F5
:10135C0052F82330012B06D1064A7B68002142F853
:10136C002310012300E0002318460C37BD4680BC37
:10137C00704700BF9400002080B483B000AF786049
:10138C00044A7B68012142F8231000BF0C37BD468C
:10139C0080BC70479400002080B582B000AF002361
:1013AC007B606EE03B4A7B6852F823203A497B68AD
:1013BC0041F82320394A7B6852F8232035497B6851
:1013CC0041F82320364A7B6832F8133019463548E9
:1013DC0000F0DAFD03461946304A7B6842F82310C8
:1013EC002D4A7B6852F823202A497B6851F8233018
:1013FC009A4243D1274A7B6852F8232027497B68BD
:10140C0051F823309A4239D1234A7B6852F8232071
:10141C0025497B6851F823309A4216D01E4A7B68C6
:10142C0052F8232020497B6841F823201E4A7B6810
:10143C0052F82330012B21D11C4A7B68C82142F879
:10144C0023107868FFF798FF18E0184A7B6852F869
:10145C0023305A1E15497B6841F82320134A7B68B8
:10146C0052F82330002B09D1104A7B68C82142F86E
:10147C0023100D4A7B68002142F823107B6801334E
:10148C007B607B68022B8DDD00BF00BF0837BD463B
:10149C0080BD00BF700000207C0000206400002094
:1014AC0018000020000801408800002020000020C7
:1014BC0080B500AF00F07EFA00F00CF800F0AAF84E
:1014CC0000F044F8024801F0D3F9FFF74DFBFCE7BC
:1014DC00D400002080B590B000AF07F1180328228B
:1014EC000021184601F080FD3B1D00221A605A6055
:1014FC009A60DA601A610223BB610123BB6210237C
:10150C00FB6200237B6307F11803184600F084FD8F
:10151C000346002B01D000F0EDF80F237B60002375
:10152C00BB600023FB6000233B6100237B613B1D00
:10153C000021184600F0F0FF0346002B01D000F00C
:10154C00D9F800BF4037BD4680BD000080B588B0DB
:10155C0000AF07F10C0300221A605A609A60DA603F
:10156C003B1D00221A605A60274B4FF080421A60D4
:10157C00254B41F63F725A60234B00229A60224B56
:10158C000922DA60204B00221A611F4B00229A615B
:10159C001D4801F01DF90346002B01D000F0AAF8FC
:1015AC004FF48053FB6007F10C031946164801F009
:1015BC00B3FA0346002B01D000F09CF800237B60AB
:1015CC000023BB603B1D19460F4801F07FFC03460E
:1015DC00002B01D000F08EF80B4B5B6801330A4AEC
:1015EC00D268013202FB03F3084AB2FBF3F3FB614E
:1015FC004FF47A72FB69B2FBF3F3054A136000BF38
:10160C002037BD4680BD00BFD400002000127A00F8
:10161C00D000002080B586B000AF07F1080300228F
:10162C001A605A609A60DA60294B9B69284A43F029
:10163C0004039361264B9B6903F004037B607B6876
:10164C00234B9B69224A43F008039361204B9B690F
:10165C0003F008033B603B6800224FF27E011D48FB
:10166C0000F0A9FC00224FF6FF711B4800F0A3FC10
:10167C004FF27E03BB600123FB6000233B6102231E
:10168C007B6107F108031946124800F003FB4FF683
:10169C00FF73BB600123FB6000233B6102237B6172
:1016AC0007F1080319460C4800F0F4FA4FF4E06314
:1016BC00BB600023FB6000233B6107F10803194664
:1016CC00044800F0E7FA00BF1837BD4680BD00BFE4
:1016DC000010024000080140000C014080B582B0AF
:1016EC0000AF786000F05CF8FFF756FE00BF0837DB
:1016FC00BD4680BD80B400AF72B600BFFEE70000EF
:10170C0080B483B000AF7860054A7B681360054BEA
:10171C0000221A6000BF0C37BD4680BC704700BF6A
:10172C00A0000020A400002080B483B000AF78603B
:10173C00054A7B681360054B00221A6000BF0C370A
:10174C00BD4680BC704700BFA8000020AC00002044
:10175C0080B483B000AF7860054A7B681360054B9A
:10176C0000221A6000BF0C37BD4680BC704700BF1A
:10177C00B0000020B400002080B483B000AF7860CB
:10178C00054A7B681360054B00221A6000BF0C37BA
:10179C00BD4680BC704700BFB8000020BC000020D4
:1017AC0080B400AF214B1B68002B0BDD1F4B1B685B
:1017BC00013B1E4A13601D4B1B68002B02DC1C4BAB
:1017CC0001221A601B4B1B68002B0BDD194B1B688D
:1017DC00013B184A1360174B1B68002B02DC164B9D
:1017EC0001221A60154B1B68002B0BDD134B1B6879
:1017FC00013B124A1360114B1B68002B02DC104B8F
:10180C0001221A600F4B1B68002B0BDD0D4B1B6864
:10181C00013B0C4A13600B4B1B68002B02DC0A4B80
:10182C0001221A6000BFBD4680BC7047A00000209A
:10183C00A4000020A8000020AC000020B000002074
:10184C00B4000020B8000020BC00002080B485B09B
:10185C0000AF154B9B69144A43F001039361124B83
:10186C009B6903F00103BB60BB680F4BDB690E4A3D
:10187C0043F08053D3610C4BDB6903F080537B60E6
:10188C007B680A4B5B68FB60FB6823F0E063FB60E2
:10189C00FB6843F08063FB60044AFB68536000BF45
:1018AC001437BD4680BC7047001002400000014058
:1018BC0080B584B000AF78607B681B68B3F1804F53
:1018CC0013D10C4BDB690B4A43F00103D361094B79
:1018DC00DB6903F00103FB60FB68002200211C2084
:1018EC0000F0A1F91C2000F0BAF900BF1037BD467A
:1018FC0080BD00BF0010024080B400AFFEE780B492
:10190C0000AFFEE780B400AFFEE780B400AFFEE7A7
:10191C0080B400AFFEE780B400AF00BFBD4680BC12
:10192C00704780B400AF00BFBD4680BC704780B428
:10193C0000AF00BFBD4680BC704780B500AF00F063
:10194C007FF800BF80BD000080B500AF024800F0FA
:10195C00DBFF00BF80BD00BFD400002080B400AF0F
:10196C0000BFBD4680BC7047FFF7F8FF0B480C4921
:10197C000C4A002302E0D458C4500433C4188C42DF
:10198C00F9D3094A094C002301E013600432A24246
:10199C00FBD301F005FBFFF78BFD70470000002027
:1019AC0038000020483000083800002020010020BA
:1019BC00FEE7000080B500AF084B1B68074A43F0F8
:1019CC0010031360032000F023F90F2000F008F837
:1019DC00FFF73CFF0023184680BD00BF00200240EB
:1019EC0080B582B000AF7860124B1A68124B1B782E
:1019FC0019464FF47A73B3FBF1F3B2FBF3F31846C9
:101A0C0000F03BF90346002B01D001230EE07B686C
:101A1C000F2B0AD8002279684FF0FF3000F003F941
:101A2C00064A7B681360002300E001231846083740
:101A3C00BD4680BD2C00002034000020300000206A
:101A4C0080B400AF054B1B781A46054B1B6813443A
:101A5C00034A136000BFBD4680BC704734000020B1
:101A6C001C01002080B400AF024B1B681846BD4619
:101A7C0080BC70471C01002080B485B000AF78603A
:101A8C007B6803F00703FB600C4BDB68BB60BA6838
:101A9C004FF6FF031340BB60FB681A02BB6813438D
:101AAC0043F0BF6343F40033BB60044ABB68D360AC
:101ABC0000BF1437BD4680BC704700BF00ED00E08E
:101ACC0080B400AF044BDB681B0A03F00703184615
:101ADC00BD4680BC704700BF00ED00E080B483B011
:101AEC0000AF0346FB7197F90730002B0BDBFB793A
:101AFC0003F01F02064997F907305B09012000FA31
:101B0C0002F241F8232000BF0C37BD4680BC704761
:101B1C0000E100E080B483B000AF03463960FB7194
:101B2C0097F90730002B0ADB3B68DAB20C4997F9BE
:101B3C0007301201D2B20B4483F800230AE03B6851
:101B4C00DAB20849FB7903F00F03043B1201D2B25D
:101B5C000B441A7600BF0C37BD4680BC704700BFE3
:101B6C0000E100E000ED00E080B489B000AFF86067
:101B7C00B9607A60FB6803F00703FB61FB69C3F192
:101B8C000703042B28BF0423BB61FB690433062B1A
:101B9C0002D9FB69033B00E000237B614FF0FF326D
:101BAC00BB6902FA03F3DA43BB681A407B699A40BB
:101BBC004FF0FF317B6901FA03F3D9437B680B408B
:101BCC00134318462437BD4680BC704780B582B09D
:101BDC0000AF78607B68013BB3F1807F01D30123B8
:101BEC000FE00A4A7B68013B53600F214FF0FF3036
:101BFC00FFF790FF054B00229A60044B07221A60F6
:101C0C00002318460837BD4680BD00BF10E000E039
:101C1C0080B582B000AF78607868FFF72DFF00BF09
:101C2C000837BD4680BD80B586B000AF0346B960AD
:101C3C007A60FB7300237B61FFF742FF78617A685F
:101C4C00B9687869FFF790FF024697F90F30114693
:101C5C001846FFF75FFF00BF1837BD4680BD80B543
:101C6C0082B000AF0346FB7197F907301846FFF7B7
:101C7C0035FF00BF0837BD4680BD80B582B000AFD0
:101C8C0078607868FFF7A2FF034618460837BD4610
:101C9C0080BD000080B48BB000AF78603960002349
:101CAC007B6200233B6248E101227B6A02FA03F368
:101CBC00FB613B681B68FA691340BB61BA69FB693D
:101CCC009A4240F037813B685B68A34A93425ED0EE
:101CDC00A14A934275D8A14A934258D09F4A934245
:101CEC006FD89F4A934252D09D4A934269D89D4ADD
:101CFC0093424CD09B4A934263D89B4A934246D022
:101D0C00994A93425DD8122B2AD8122B59D801A28A
:101D1C0052F823F09B1D0008751D0008871D000854
:101D2C00C91D0008CF1D0008CF1D0008CF1D0008DD
:101D3C00CF1D0008CF1D0008CF1D0008CF1D0008C7
:101D4C00CF1D0008CF1D0008CF1D0008CF1D0008B7
:101D5C00CF1D0008CF1D00087D1D0008911D000837
:101D6C00824A934213D02CE03B68DB683B6229E04B
:101D7C003B68DB6804333B6224E03B68DB68083378
:101D8C003B621FE03B68DB680C333B621AE03B684C
:101D9C009B68002B02D104233B6213E03B689B68D9
:101DAC00012B05D108233B627B68FA691A6109E0B3
:101DBC0008233B627B68FA695A6103E000233B62AB
:101DCC0000E000BFBB69FF2B01D87B6801E07B689A
:101DDC0004337B61BB69FF2B02D87B6A9B0002E05A
:101DEC007B6A083B9B003B617B691A680F213B694E
:101DFC0001FA03F3DB431A40396A3B6901FA03F336
:101E0C001A437B691A603B685B6803F08053002BB4
:101E1C0000F09080564B9B69554A43F00103936147
:101E2C00534B9B6903F00103BB60BB68514A7B6A4F
:101E3C009B08023352F82330FB607B6A03F00303E8
:101E4C009B000F2202FA03F3DB43FA681340FB609A
:101E5C007B68494A93420DD07B68484A934207D02D
:101E6C007B68474A934201D1022304E0032302E03A
:101E7C00012300E000237A6A02F0030292009340EF
:101E8C00FA681343FB603B497B6A9B080233FA6890
:101E9C0041F823203B685B6803F48013002B06D0C9
:101EAC00384B9A683749BB6913438B6006E0354B56
:101EBC009A68BB69DB43334913408B603B685B68B2
:101ECC0003F40013002B06D02E4BDA682D49BB69A6
:101EDC001343CB6006E02B4BDA68BB69DB43294923
:101EEC001340CB603B685B6803F40033002B06D0D7
:101EFC00244B5A682349BB6913434B6006E0214BC2
:101F0C005A68BB69DB431F4913404B603B685B68F5
:101F1C0003F48033002B06D01A4B1A681949BB699D
:101F2C0013430B6006E0174B1A68BB69DB4315497A
:101F3C0013400B607B6A01337B623B681A687B6AD7
:101F4C0022FA03F3002B7FF4AFAE00BF00BF2C3797
:101F5C00BD4680BC704700BF00003210000031103D
:101F6C0000002210000021100000121000001110BF
:101F7C00001002400000014000080140000C01402C
:101F8C00001001400004014080B485B000AF7860BF
:101F9C000B467B807B689A687B881340002B02D0B1
:101FAC000123FB7301E00023FB73FB7B1846143702
:101FBC00BD4680BC704780B483B000AF78600B46E0
:101FCC007B8013467B707B78002B03D07A887B68F0
:101FDC001A6103E07B881A047B681A6100BF0C3716
:101FEC00BD4680BC704780B485B000AF78600B46AE
:101FFC007B807B68DB68FB607A88FB6813401A0483
:10200C00FB68D9437B880B401A437B681A6100BF7D
:10201C001437BD4680BC704780B586B000AF786081
:10202C007B68002B01D101236CE27B681B6803F0F9
:10203C000103002B00F08780924B5B6803F00C03CC
:10204C00042B0CD08F4B5B6803F00C03082B12D1C4
:10205C008C4B5B6803F48033B3F5803F0BD1894B19
:10206C001B6803F40033002B6CD07B685B68002B7F
:10207C0068D1012346E27B685B68B3F5803F06D1EB
:10208C00804B1B687F4A43F4803313602EE07B68DF
:10209C005B68002B0CD17B4B1B687A4A23F4803392
:1020AC001360784B1B68774A23F4802313601DE080
:1020BC007B685B68B3F5A02F0CD1724B1B68714A1F
:1020CC0043F4802313606F4B1B686E4A43F48033D8
:1020DC0013600BE06B4B1B686A4A23F4803313606C
:1020EC00684B1B68674A23F4802313607B685B682A
:1020FC00002B13D0FFF7B6FC386108E0FFF7B2FCF9
:10210C0002463B69D31A642B01D90323FAE15D4BD8
:10211C001B6803F40033002BF0D014E0FFF7A2FC93
:10212C00386108E0FFF79EFC02463B69D31A642B2A
:10213C0001D90323E6E1534B1B6803F40033002B56
:10214C00F0D100E000BF7B681B6803F00203002B9A
:10215C0063D04C4B5B6803F00C03002B0BD0494B4A
:10216C005B6803F00C03082B1CD1464B5B6803F433
:10217C008033002B16D1434B1B6803F00203002B5A
:10218C0005D07B681B69012B01D00123BAE13D4BC3
:10219C001B6823F0F8027B685B69DB003949134349
:1021AC000B603AE07B681B69002B20D0364B012278
:1021BC001A60FFF757FC386108E0FFF753FC024642
:1021CC003B69D31A022B01D903239BE12D4B1B68CE
:1021DC0003F00203002BF0D02A4B1B6823F0F8020B
:1021EC007B685B69DB00274913430B6015E0264BCA
:1021FC0000221A60FFF736FC386108E0FFF732FC6A
:10220C0002463B69D31A022B01D903237AE11D4BF9
:10221C001B6803F00203002BF0D17B681B6803F0F2
:10222C000803002B3AD07B689B69002B19D0174B05
:10223C0001221A60FFF716FC386108E0FFF712FC68
:10224C0002463B69D31A022B01D903235AE10D4BE9
:10225C005B6A03F00203002BF0D0012000F09AFA25
:10226C001CE00A4B00221A60FFF7FCFB38610FE000
:10227C00FFF7F8FB02463B69D31A022B08D903235C
:10228C0040E100BF00100240000042428004424284
:10229C009E4B5B6A03F00203002BE9D17B681B6841
:1022AC0003F00403002B00F0A6800023FB75974B72
:1022BC00DB6903F08053002B0DD1944BDB69934AFF
:1022CC0043F08053D361914BDB6903F08053BB60C7
:1022DC00BB680123FB758E4B1B6803F48073002BCA
:1022EC0018D18B4B1B688A4A43F480731360FFF739
:1022FC00B9FB386108E0FFF7B5FB02463B69D31A1E
:10230C00642B01D90323FDE0814B1B6803F480731C
:10231C00002BF0D07B68DB68012B06D17B4B1B6A52
:10232C007A4A43F0010313622DE07B68DB68002BD3
:10233C000CD1764B1B6A754A23F001031362734B65
:10234C001B6A724A23F0040313621CE07B68DB688F
:10235C00052B0CD16D4B1B6A6C4A43F004031362C2
:10236C006A4B1B6A694A43F0010313620BE0674B2B
:10237C001B6A664A23F001031362644B1B6A634AAF
:10238C0023F0040313627B68DB68002B15D0FFF786
:10239C0069FB38610AE0FFF765FB02463B69D31A1B
:1023AC0041F28832934201D90323ABE0574B1B6AAD
:1023BC0003F00203002BEED014E0FFF753FB38615F
:1023CC000AE0FFF74FFB02463B69D31A41F2883211
:1023DC00934201D9032395E04C4B1B6A03F0020393
:1023EC00002BEED1FB7D012B05D1484BDB69474A15
:1023FC0023F08053D3617B68DB69002B00F0818074
:10240C00424B5B6803F00C03082B61D07B68DB69E3
:10241C00022B46D13F4B00221A60FFF723FB386199
:10242C0008E0FFF71FFB02463B69D31A022B01D9C8
:10243C00032367E0354B1B6803F00073002BF0D1CE
:10244C007B681B6AB3F5803F08D1304B5B6823F483
:10245C0000327B689B682D4913434B602B4B5B68A8
:10246C0023F474127B68196A7B685B6A0B432749F7
:10247C0013434B60274B01221A60FFF7F3FA3861C4
:10248C0008E0FFF7EFFA02463B69D31A022B01D999
:10249C00032337E01D4B1B6803F00073002BF0D0B7
:1024AC002FE01C4B00221A60FFF7DCFA386108E0C1
:1024BC00FFF7D8FA02463B69D31A022B01D9032342
:1024CC0020E0124B1B6803F00073002BF0D118E0D6
:1024DC007B68DB69012B01D1012313E00B4B5B689B
:1024EC00FB60FB6803F480327B681B6A9A4206D15E
:1024FC00FB6803F470127B685B6A9A4201D001237B
:10250C0000E0002318461837BD4680BD001002407D
:10251C00007000406000424280B584B000AF78602B
:10252C0039607B68002B01D10123D0E06A4B1B681A
:10253C0003F007033A689A4210D9674B1B6823F0E3
:10254C00070265493B6813430B60634B1B6803F040
:10255C0007033A689A4201D00123B8E07B681B68F4
:10256C0003F00203002B20D07B681B6803F00403EC
:10257C00002B05D0594B5B68584A43F4E063536019
:10258C007B681B6803F00803002B05D0534B5B687A
:10259C00524A43F460535360504B5B6823F0F00293
:1025AC007B689B684D4913434B607B681B6803F049
:1025BC000103002B40D07B685B68012B07D1474B94
:1025CC001B6803F40033002B15D101237FE07B68DB
:1025DC005B68022B07D1414B1B6803F00073002B87
:1025EC0009D1012373E03D4B1B6803F00203002B60
:1025FC0001D101236BE0394B5B6823F003027B684C
:10260C005B68364913434B60FFF72CFAF8600AE01D
:10261C00FFF728FA0246FB68D31A41F2883293423C
:10262C0001D9032353E02D4B5B6803F00C027B684C
:10263C005B689B009A42EBD1274B1B6803F00703A6
:10264C003A689A4210D2244B1B6823F007022249A5
:10265C003B6813430B60204B1B6803F007033A687D
:10266C009A4201D0012332E07B681B6803F004031B
:10267C00002B08D0194B5B6823F4E0627B68DB68A5
:10268C00164913434B607B681B6803F00803002B4F
:10269C0009D0124B5B6823F460527B681B69DB002A
:1026AC000E4913434B6000F021F802460B4B5B685C
:1026BC001B0903F00F030A49CB5C22FA03F3094A06
:1026CC001360094B1B681846FFF78AF9002318465C
:1026DC001037BD4680BD00BF0020024000100240F4
:1026EC001C3000082C0000203000002080B487B083
:1026FC0000AF0023FB600023BB6000237B61002341
:10270C007B6000233B611E4B5B68FB60FB6803F046
:10271C000C03042B02D0082B03D027E0194B3B6190
:10272C0027E0FB689B0C03F00F03174AD35C7B601C
:10273C00FB6803F48033002B10D0114B5B685B0CEF
:10274C0003F00103114AD35CBB607B680D4A02FBAA
:10275C0003F2BB68B2FBF3F37B6104E07B680C4AC9
:10276C0002FB03F37B617B693B6102E0054B3B6140
:10277C0000BF3B6918461C37BD4680BC704700BF84
:10278C000010024000127A002C3000083C30000887
:10279C0000093D0080B485B000AF78600A4B1B681F
:1027AC000A4AA2FB03235B0A7A6802FB03F3FB6071
:1027BC0000BFFB685A1EFA60002BF9D100BF00BFA6
:1027CC001437BD4680BC70472C000020D34D6210DE
:1027DC0080B582B000AF78607B68002B01D10123FB
:1027EC0041E07B6893F83D30DBB2002B06D17B686F
:1027FC00002283F83C207868FFF75AF87B680222A5
:10280C0083F83D207B681A687B68043319461046B0
:10281C0000F06EFA7B68012283F846207B68012267
:10282C0083F83E207B68012283F83F207B680122DD
:10283C0083F840207B68012283F841207B680122C9
:10284C0083F842207B68012283F843207B680122B5
:10285C0083F844207B68012283F845207B680122A1
:10286C0083F83D20002318460837BD4680BD000084
:10287C0080B485B000AF78607B6893F83D30DBB2F4
:10288C00012B01D0012335E07B68022283F83D2027
:10289C007B681B68DA687B681B6842F00102DA60AF
:1028AC007B681B68164A934209D07B681B68B3F19E
:1028BC00804F04D07B681B68124A934211D17B680D
:1028CC001B689B6803F00703FB60FB68062B10D0AA
:1028DC007B681B681A687B681B6842F001021A60EF
:1028EC0007E07B681B681A687B681B6842F0010272
:1028FC001A60002318461437BD4680BC704700BFD1
:10290C00002C01400004004080B582B000AF78601C
:10291C007B681B681B6903F00203022B22D17B68C6
:10292C001B68DB6803F00203022B1BD17B681B685E
:10293C006FF002021A617B6801221A777B681B68B0
:10294C009B6903F00303002B03D0786800F0B4F903
:10295C0005E0786800F0A7F9786800F0B6F97B68B4
:10296C0000221A777B681B681B6903F00403042B95
:10297C0022D17B681B68DB6803F00403042B1BD19A
:10298C007B681B686FF004021A617B6802221A775D
:10299C007B681B689B6903F44073002B03D0786839
:1029AC0000F08AF905E0786800F07DF9786800F0AD
:1029BC008CF97B6800221A777B681B681B6903F013
:1029CC000803082B22D17B681B68DB6803F0080323
:1029DC00082B1BD17B681B686FF008021A617B689F
:1029EC0004221A777B681B68DB6903F00303002B56
:1029FC0003D0786800F060F905E0786800F053F9CE
:102A0C00786800F062F97B6800221A777B681B6893
:102A1C001B6903F01003102B22D17B681B68DB6849
:102A2C0003F01003102B1BD17B681B686FF0100296
:102A3C001A617B6808221A777B681B68DB6903F4D0
:102A4C004073002B03D0786800F036F905E0786805
:102A5C0000F029F9786800F038F97B6800221A77C1
:102A6C007B681B681B6903F00103012B0ED17B688B
:102A7C001B68DB6803F00103012B07D17B681B6823
:102A8C006FF001021A617868FEF728FE7B681B68FC
:102A9C001B6903F08003802B0ED17B681B68DB68FD
:102AAC0003F08003802B07D17B681B686FF08002DA
:102ABC001A61786800F06BFA7B681B681B6903F07D
:102ACC004003402B0ED17B681B68DB6803F040038E
:102ADC00402B07D17B681B686FF040021A61786845
:102AEC0000F0FCF87B681B681B6903F02003202BAB
:102AFC000ED17B681B68DB6803F02003202B07D109
:102B0C007B681B686FF020021A61786800F036FA57
:102B1C0000BF0837BD4680BD80B584B000AF78607B
:102B2C0039600023FB737B6893F83C30012B01D197
:102B3C000223B4E07B68012283F83C207B680222EC
:102B4C0083F83D207B681B689B68BB60BB6823F0E7
:102B5C007703BB60BB6823F47F43BB607B681B6857
:102B6C00BA689A603B681B68B3F5005F3ED0B3F55A
:102B7C00005F00F28780B3F5805F00F08680B3F5CC
:102B8C00805F7FD8702B1AD0702B7BD8602B50D0E5
:102B9C00602B77D8502B3CD0502B73D8402B58D06F
:102BAC00402B6FD8302B64D0302B6BD8202B60D0BF
:102BBC00202B67D8002B5CD0102B5AD062E07B689E
:102BCC0018683B6899683B685A683B68DB6800F09A
:102BDC005EF97B681B689B68BB60BB6843F077033E
:102BEC00BB607B681B68BA689A604FE07B681868AA
:102BFC003B6899683B685A683B68DB6800F047F9AA
:102C0C007B681B689A687B681B6842F480429A60F8
:102C1C003CE07B6818683B6859683B68DB681A467F
:102C2C0000F0BEF87B681B685021184600F015F9BF
:102C3C002CE07B6818683B6859683B68DB681A466F
:102C4C0000F0DCF87B681B686021184600F005F981
:102C5C001CE07B6818683B6859683B68DB681A465F
:102C6C0000F09EF87B681B684021184600F0F5F8D0
:102C7C000CE07B681A683B681B681946104600F02C
:102C8C00ECF803E00123FB7300E000BF7B6801223A
:102C9C0083F83D207B68002283F83C20FB7B1846A0
:102CAC001037BD4680BD80B483B000AF786000BFE4
:102CBC000C37BD4680BC704780B483B000AF7860E1
:102CCC0000BF0C37BD4680BC704780B483B000AFEA
:102CDC00786000BF0C37BD4680BC704780B483B0B1
:102CEC0000AF786000BF0C37BD4680BC7047000059
:102CFC0080B485B000AF786039607B681B68FB607E
:102D0C007B68254A934207D07B68B3F1804F03D090
:102D1C007B68224A934208D1FB6823F07003FB6066
:102D2C003B685B68FA681343FB607B681A4A934202
:102D3C0007D07B68B3F1804F03D07B68174A93426E
:102D4C0008D1FB6823F44073FB603B68DB68FA68CE
:102D5C001343FB60FB6823F080023B685B69134301
:102D6C00FB607B68FA681A603B689A687B68DA6279
:102D7C003B681A687B689A627B68074A934203D166
:102D8C003B681A697B681A637B6801225A6100BF31
:102D9C001437BD4680BC7047002C01400004004035
:102DAC0080B487B000AFF860B9607A60FB681B6ACA
:102DBC007B61FB681B6A23F00102FB681A62FB68EB
:102DCC009B693B613B6923F0F0033B617B681B0112
:102DDC003A6913433B617B6923F00A037B617A698F
:102DEC00BB6813437B61FB683A699A61FB687A693B
:102DFC001A6200BF1C37BD4680BC704780B487B0D8
:102E0C0000AFF860B9607A60FB681B6A7B61FB6895
:102E1C001B6A23F01002FB681A62FB689B693B611A
:102E2C003B6923F470433B617B681B033A69134392
:102E3C003B617B6923F0A0037B61BB681B017A6952
:102E4C0013437B61FB683A699A61FB687A691A6281
:102E5C0000BF1C37BD4680BC704780B485B000AF46
:102E6C00786039607B689B68FB60FB6823F07003BB
:102E7C00FB603A68FB68134343F00703FB607B6815
:102E8C00FA689A6000BF1437BD4680BC704780B4A6
:102E9C0087B000AFF860B9607A603B60FB689B68F4
:102EAC007B617B6923F47F437B613B681A027B68FF
:102EBC001A43BB6813437A6913437B61FB687A69D5
:102ECC009A6000BF1C37BD4680BC704780B485B08B
:102EDC0000AF786039607B6893F83C30012B01D1EE
:102EEC00022341E07B68012283F83C207B680222AC
:102EFC0083F83D207B681B685B68FB607B681B6804
:102F0C009B68BB60FB6823F07003FB603B681B682D
:102F1C00FA681343FB607B681B68FA685A607B682D
:102F2C001B68144A934209D07B681B68B3F1804F2D
:102F3C0004D07B681B68104A93420CD1BB6823F009
:102F4C008003BB603B685B68BA681343BB607B68FB
:102F5C001B68BA689A607B68012283F83D207B6805
:102F6C00002283F83C20002318461437BD4680BC51
:102F7C00704700BF002C01400004004080B483B0B7
:102F8C0000AF786000BF0C37BD4680BC704780B482
:102F9C0083B000AF786000BF0C37BD4680BC704773
:102FAC0070B500260C4D0D4C641BA410A64209D123
:102FBC0000F022F800260A4D0A4C641BA410A6420D
:102FCC0005D170BD55F8043B98470136EEE755F82E
:102FDC00043B98470136F2E74030000840300008C7
:102FEC00403000084430000803460244934200D1AC
:102FFC00704703F8011BF9E7F8B500BFF8BC08BC33
:10300C009E467047F8B500BFF8BC08BC9E4670479A
:10301C00000000000000000001020304060708097C
:10302C0002030405060708090A0B0C0D0E0F1010FD
:04303C00010200008D
:043040003101000852
:043044000D01000872
:10304800030000000500000002000000030000006B
:10305800050000000200000000010002000400005A
:10306800C8000000C8000000C80000000024F400E8
:0830780010000000010000003F
:040000050800197561
:00000001FF
